{
  "_format": "hh-sol-artifact-1",
  "contractName": "CRUD",
  "sourceName": "contracts/Crud.sol",
  "abi": [
    {
      "inputs": [],
      "stateMutability": "nonpayable",
      "type": "constructor"
    },
    {
      "inputs": [
        {
          "internalType": "string",
          "name": "name",
          "type": "string"
        },
        {
          "internalType": "string",
          "name": "email",
          "type": "string"
        },
        {
          "internalType": "uint256",
          "name": "age",
          "type": "uint256"
        },
        {
          "internalType": "address",
          "name": "walletAddress",
          "type": "address"
        }
      ],
      "name": "create",
      "outputs": [
        {
          "internalType": "uint256",
          "name": "_totalEmployee",
          "type": "uint256"
        }
      ],
      "stateMutability": "nonpayable",
      "type": "function"
    },
    {
      "inputs": [
        {
          "internalType": "string",
          "name": "email",
          "type": "string"
        }
      ],
      "name": "deleteEmpolyees",
      "outputs": [
        {
          "internalType": "bool",
          "name": "",
          "type": "bool"
        }
      ],
      "stateMutability": "nonpayable",
      "type": "function"
    },
    {
      "inputs": [
        {
          "internalType": "uint256",
          "name": "",
          "type": "uint256"
        }
      ],
      "name": "employees",
      "outputs": [
        {
          "internalType": "string",
          "name": "name",
          "type": "string"
        },
        {
          "internalType": "string",
          "name": "email",
          "type": "string"
        },
        {
          "internalType": "uint256",
          "name": "age",
          "type": "uint256"
        },
        {
          "internalType": "address",
          "name": "walletAddress",
          "type": "address"
        }
      ],
      "stateMutability": "view",
      "type": "function"
    },
    {
      "inputs": [],
      "name": "totalEmployees",
      "outputs": [
        {
          "internalType": "uint256",
          "name": "",
          "type": "uint256"
        }
      ],
      "stateMutability": "view",
      "type": "function"
    },
    {
      "inputs": [
        {
          "internalType": "string",
          "name": "name",
          "type": "string"
        },
        {
          "internalType": "string",
          "name": "email",
          "type": "string"
        }
      ],
      "name": "updateEmployee",
      "outputs": [
        {
          "internalType": "bool",
          "name": "",
          "type": "bool"
        }
      ],
      "stateMutability": "nonpayable",
      "type": "function"
    }
  ],
  "bytecode": "0x608060405234801561001057600080fd5b506000600181905550610e66806100286000396000f3fe608060405234801561001057600080fd5b50600436106100575760003560e01c806315f680e11461005c5780634692ed671461008c5780634739326b146100bc5780634d8802bb146100ef57806352b9b9731461011f575b600080fd5b61007660048036038101906100719190610928565b61013d565b6040516100839190610afe565b60405180910390f35b6100a660048036038101906100a19190610994565b6102ba565b6040516100b39190610b6c565b60405180910390f35b6100d660048036038101906100d19190610a27565b6103d5565b6040516100e69493929190610b19565b60405180910390f35b610109600480360381019061010491906108e7565b610545565b6040516101169190610afe565b60405180910390f35b610127610713565b6040516101349190610b6c565b60405180910390f35b600080600090505b6001548110156102ae5761022c6000828154811061018c577f4e487b7100000000000000000000000000000000000000000000000000000000600052603260045260246000fd5b906000526020600020906004020160010180546101a890610cb8565b80601f01602080910402602001604051908101604052809291908181526020018280546101d490610cb8565b80156102215780601f106101f657610100808354040283529160200191610221565b820191906000526020600020905b81548152906001019060200180831161020457829003601f168201915b505050505084610719565b1561029b57836000828154811061026c577f4e487b7100000000000000000000000000000000000000000000000000000000600052603260045260246000fd5b90600052602060002090600402016000019080519060200190610290929190610772565b5060019150506102b4565b80806102a690610d1b565b915050610145565b50600090505b92915050565b60008060405180608001604052808781526020018681526020018581526020018473ffffffffffffffffffffffffffffffffffffffff1681525090506000819080600181540180825580915050600190039060005260206000209060040201600090919091909150600082015181600001908051906020019061033e929190610772565b50602082015181600101908051906020019061035b929190610772565b506040820151816002015560608201518160030160006101000a81548173ffffffffffffffffffffffffffffffffffffffff021916908373ffffffffffffffffffffffffffffffffffffffff1602179055505050600160008154809291906103c290610d1b565b9190505550600154915050949350505050565b600081815481106103e557600080fd5b906000526020600020906004020160009150905080600001805461040890610cb8565b80601f016020809104026020016040519081016040528092919081815260200182805461043490610cb8565b80156104815780601f1061045657610100808354040283529160200191610481565b820191906000526020600020905b81548152906001019060200180831161046457829003601f168201915b50505050509080600101805461049690610cb8565b80601f01602080910402602001604051908101604052809291908181526020018280546104c290610cb8565b801561050f5780601f106104e45761010080835404028352916020019161050f565b820191906000526020600020905b8154815290600101906020018083116104f257829003601f168201915b5050505050908060020154908060030160009054906101000a900473ffffffffffffffffffffffffffffffffffffffff16905084565b600080600090505b6001548110156107085761063460008281548110610594577f4e487b7100000000000000000000000000000000000000000000000000000000600052603260045260246000fd5b906000526020600020906004020160010180546105b090610cb8565b80601f01602080910402602001604051908101604052809291908181526020018280546105dc90610cb8565b80156106295780601f106105fe57610100808354040283529160200191610629565b820191906000526020600020905b81548152906001019060200180831161060c57829003601f168201915b505050505084610719565b156106f55760008181548110610673577f4e487b7100000000000000000000000000000000000000000000000000000000600052603260045260246000fd5b90600052602060002090600402016000808201600061069291906107f8565b6001820160006106a291906107f8565b60028201600090556003820160006101000a81549073ffffffffffffffffffffffffffffffffffffffff02191690555050600160008154809291906106e690610c8e565b9190505550600191505061070e565b808061070090610d1b565b91505061054d565b50600090505b919050565b60015481565b60008160405160200161072c9190610ae7565b60405160208183030381529060405280519060200120836040516020016107539190610ae7565b6040516020818303038152906040528051906020012014905092915050565b82805461077e90610cb8565b90600052602060002090601f0160209004810192826107a057600085556107e7565b82601f106107b957805160ff19168380011785556107e7565b828001600101855582156107e7579182015b828111156107e65782518255916020019190600101906107cb565b5b5090506107f49190610838565b5090565b50805461080490610cb8565b6000825580601f106108165750610835565b601f0160209004906000526020600020908101906108349190610838565b5b50565b5b80821115610851576000816000905550600101610839565b5090565b600061086861086384610bac565b610b87565b90508281526020810184848401111561088057600080fd5b61088b848285610c4c565b509392505050565b6000813590506108a281610e02565b92915050565b600082601f8301126108b957600080fd5b81356108c9848260208601610855565b91505092915050565b6000813590506108e181610e19565b92915050565b6000602082840312156108f957600080fd5b600082013567ffffffffffffffff81111561091357600080fd5b61091f848285016108a8565b91505092915050565b6000806040838503121561093b57600080fd5b600083013567ffffffffffffffff81111561095557600080fd5b610961858286016108a8565b925050602083013567ffffffffffffffff81111561097e57600080fd5b61098a858286016108a8565b9150509250929050565b600080600080608085870312156109aa57600080fd5b600085013567ffffffffffffffff8111156109c457600080fd5b6109d0878288016108a8565b945050602085013567ffffffffffffffff8111156109ed57600080fd5b6109f9878288016108a8565b9350506040610a0a878288016108d2565b9250506060610a1b87828801610893565b91505092959194509250565b600060208284031215610a3957600080fd5b6000610a47848285016108d2565b91505092915050565b610a5981610c04565b82525050565b610a6881610c16565b82525050565b6000610a7982610bdd565b610a838185610be8565b9350610a93818560208601610c5b565b610a9c81610df1565b840191505092915050565b6000610ab282610bdd565b610abc8185610bf9565b9350610acc818560208601610c5b565b80840191505092915050565b610ae181610c42565b82525050565b6000610af38284610aa7565b915081905092915050565b6000602082019050610b136000830184610a5f565b92915050565b60006080820190508181036000830152610b338187610a6e565b90508181036020830152610b478186610a6e565b9050610b566040830185610ad8565b610b636060830184610a50565b95945050505050565b6000602082019050610b816000830184610ad8565b92915050565b6000610b91610ba2565b9050610b9d8282610cea565b919050565b6000604051905090565b600067ffffffffffffffff821115610bc757610bc6610dc2565b5b610bd082610df1565b9050602081019050919050565b600081519050919050565b600082825260208201905092915050565b600081905092915050565b6000610c0f82610c22565b9050919050565b60008115159050919050565b600073ffffffffffffffffffffffffffffffffffffffff82169050919050565b6000819050919050565b82818337600083830152505050565b60005b83811015610c79578082015181840152602081019050610c5e565b83811115610c88576000848401525b50505050565b6000610c9982610c42565b91506000821415610cad57610cac610d64565b5b600182039050919050565b60006002820490506001821680610cd057607f821691505b60208210811415610ce457610ce3610d93565b5b50919050565b610cf382610df1565b810181811067ffffffffffffffff82111715610d1257610d11610dc2565b5b80604052505050565b6000610d2682610c42565b91507fffffffffffffffffffffffffffffffffffffffffffffffffffffffffffffffff821415610d5957610d58610d64565b5b600182019050919050565b7f4e487b7100000000000000000000000000000000000000000000000000000000600052601160045260246000fd5b7f4e487b7100000000000000000000000000000000000000000000000000000000600052602260045260246000fd5b7f4e487b7100000000000000000000000000000000000000000000000000000000600052604160045260246000fd5b6000601f19601f8301169050919050565b610e0b81610c04565b8114610e1657600080fd5b50565b610e2281610c42565b8114610e2d57600080fd5b5056fea26469706673582212201b4e74f22612c54dda6e777409b5420928c4d03da31c4ba61779e020a82a03ec64736f6c63430008040033",
  "linkReferences": {},
  "deployedLinkReferences": {}
}