{
  "_format": "hh-sol-artifact-1",
  "contractName": "MultiSignerWallet",
  "sourceName": "contracts/Wallet.sol",
  "abi": [
    {
      "inputs": [
        {
          "internalType": "address[]",
          "name": "_owners",
          "type": "address[]"
        },
        {
          "internalType": "uint256",
          "name": "_threshold",
          "type": "uint256"
        }
      ],
      "stateMutability": "nonpayable",
      "type": "constructor"
    },
    {
      "inputs": [
        {
          "internalType": "address",
          "name": "",
          "type": "address"
        },
        {
          "internalType": "uint256",
          "name": "",
          "type": "uint256"
        }
      ],
      "name": "approvals",
      "outputs": [
        {
          "internalType": "bool",
          "name": "",
          "type": "bool"
        }
      ],
      "stateMutability": "view",
      "type": "function"
    },
    {
      "inputs": [
        {
          "internalType": "uint256",
          "name": "id",
          "type": "uint256"
        }
      ],
      "name": "approveTransfer",
      "outputs": [],
      "stateMutability": "nonpayable",
      "type": "function"
    },
    {
      "inputs": [
        {
          "internalType": "uint256",
          "name": "ammount",
          "type": "uint256"
        },
        {
          "internalType": "address payable",
          "name": "to",
          "type": "address"
        }
      ],
      "name": "createTransfer",
      "outputs": [],
      "stateMutability": "nonpayable",
      "type": "function"
    },
    {
      "inputs": [],
      "name": "deposit",
      "outputs": [],
      "stateMutability": "payable",
      "type": "function"
    },
    {
      "inputs": [],
      "name": "getOwners",
      "outputs": [
        {
          "internalType": "address[]",
          "name": "",
          "type": "address[]"
        }
      ],
      "stateMutability": "view",
      "type": "function"
    },
    {
      "inputs": [],
      "name": "getTransfers",
      "outputs": [
        {
          "components": [
            {
              "internalType": "uint256",
              "name": "id",
              "type": "uint256"
            },
            {
              "internalType": "uint256",
              "name": "ammount",
              "type": "uint256"
            },
            {
              "internalType": "address payable",
              "name": "to",
              "type": "address"
            },
            {
              "internalType": "uint256",
              "name": "approvals",
              "type": "uint256"
            },
            {
              "internalType": "bool",
              "name": "sent",
              "type": "bool"
            }
          ],
          "internalType": "struct MultiSignerWallet.Transfer[]",
          "name": "",
          "type": "tuple[]"
        }
      ],
      "stateMutability": "view",
      "type": "function"
    },
    {
      "inputs": [
        {
          "internalType": "uint256",
          "name": "",
          "type": "uint256"
        }
      ],
      "name": "owners",
      "outputs": [
        {
          "internalType": "address",
          "name": "",
          "type": "address"
        }
      ],
      "stateMutability": "view",
      "type": "function"
    },
    {
      "inputs": [],
      "name": "threshold",
      "outputs": [
        {
          "internalType": "uint256",
          "name": "",
          "type": "uint256"
        }
      ],
      "stateMutability": "view",
      "type": "function"
    },
    {
      "inputs": [
        {
          "internalType": "uint256",
          "name": "",
          "type": "uint256"
        }
      ],
      "name": "transfers",
      "outputs": [
        {
          "internalType": "uint256",
          "name": "id",
          "type": "uint256"
        },
        {
          "internalType": "uint256",
          "name": "ammount",
          "type": "uint256"
        },
        {
          "internalType": "address payable",
          "name": "to",
          "type": "address"
        },
        {
          "internalType": "uint256",
          "name": "approvals",
          "type": "uint256"
        },
        {
          "internalType": "bool",
          "name": "sent",
          "type": "bool"
        }
      ],
      "stateMutability": "view",
      "type": "function"
    }
  ],
  "bytecode": "0x60806040523480156200001157600080fd5b506040516200143a3803806200143a8339818101604052810190620000379190620001dd565b81600090805190602001906200004f9291906200005f565b5080600181905550505062000377565b828054828255906000526020600020908101928215620000db579160200282015b82811115620000da5782518260006101000a81548173ffffffffffffffffffffffffffffffffffffffff021916908373ffffffffffffffffffffffffffffffffffffffff1602179055509160200191906001019062000080565b5b509050620000ea9190620000ee565b5090565b5b8082111562000109576000816000905550600101620000ef565b5090565b6000620001246200011e8462000260565b62000237565b905080838252602082019050828560208602820111156200014457600080fd5b60005b858110156200017857816200015d888262000182565b84526020840193506020830192505060018101905062000147565b5050509392505050565b600081519050620001938162000343565b92915050565b600082601f830112620001ab57600080fd5b8151620001bd8482602086016200010d565b91505092915050565b600081519050620001d7816200035d565b92915050565b60008060408385031215620001f157600080fd5b600083015167ffffffffffffffff8111156200020c57600080fd5b6200021a8582860162000199565b92505060206200022d85828601620001c6565b9150509250929050565b60006200024362000256565b9050620002518282620002cd565b919050565b6000604051905090565b600067ffffffffffffffff8211156200027e576200027d62000303565b5b602082029050602081019050919050565b60006200029c82620002a3565b9050919050565b600073ffffffffffffffffffffffffffffffffffffffff82169050919050565b6000819050919050565b620002d88262000332565b810181811067ffffffffffffffff82111715620002fa57620002f962000303565b5b80604052505050565b7f4e487b7100000000000000000000000000000000000000000000000000000000600052604160045260246000fd5b6000601f19601f8301169050919050565b6200034e816200028f565b81146200035a57600080fd5b50565b6200036881620002c3565b81146200037457600080fd5b50565b6110b380620003876000396000f3fe6080604052600436106100865760003560e01c80639377d711116100595780639377d71114610147578063a0e67e2b14610188578063cacca4a0146101b3578063d0e30db0146101dc578063ffabc673146101e657610086565b8063025e7c271461008b5780632f65142c146100c857806342cde4e8146100f35780634c12fa471461011e575b600080fd5b34801561009757600080fd5b506100b260048036038101906100ad9190610a60565b610223565b6040516100bf9190610cfa565b60405180910390f35b3480156100d457600080fd5b506100dd610262565b6040516100ea9190610d37565b60405180910390f35b3480156100ff57600080fd5b50610108610350565b6040516101159190610dd4565b60405180910390f35b34801561012a57600080fd5b5061014560048036038101906101409190610a89565b610356565b005b34801561015357600080fd5b5061016e60048036038101906101699190610a60565b610452565b60405161017f959493929190610def565b60405180910390f35b34801561019457600080fd5b5061019d6104c5565b6040516101aa9190610d15565b60405180910390f35b3480156101bf57600080fd5b506101da60048036038101906101d59190610a60565b610553565b005b6101e46109b4565b005b3480156101f257600080fd5b5061020d60048036038101906102089190610a24565b6109b6565b60405161021a9190610d59565b60405180910390f35b6000818154811061023357600080fd5b906000526020600020016000915054906101000a900473ffffffffffffffffffffffffffffffffffffffff1681565b60606003805480602002602001604051908101604052809291908181526020016000905b8282101561034757838290600052602060002090600502016040518060a001604052908160008201548152602001600182015481526020016002820160009054906101000a900473ffffffffffffffffffffffffffffffffffffffff1673ffffffffffffffffffffffffffffffffffffffff1673ffffffffffffffffffffffffffffffffffffffff168152602001600382015481526020016004820160009054906101000a900460ff16151515158152505081526020019060010190610286565b50505050905090565b60015481565b60036040518060a0016040528060038054905081526020018481526020018373ffffffffffffffffffffffffffffffffffffffff16815260200160008152602001600015158152509080600181540180825580915050600190039060005260206000209060050201600090919091909150600082015181600001556020820151816001015560408201518160020160006101000a81548173ffffffffffffffffffffffffffffffffffffffff021916908373ffffffffffffffffffffffffffffffffffffffff1602179055506060820151816003015560808201518160040160006101000a81548160ff02191690831515021790555050505050565b6003818154811061046257600080fd5b90600052602060002090600502016000915090508060000154908060010154908060020160009054906101000a900473ffffffffffffffffffffffffffffffffffffffff16908060030154908060040160009054906101000a900460ff16905085565b6060600080548060200260200160405190810160405280929190818152602001828054801561054957602002820191906000526020600020905b8160009054906101000a900473ffffffffffffffffffffffffffffffffffffffff1673ffffffffffffffffffffffffffffffffffffffff16815260200190600101908083116104ff575b5050505050905090565b6000151560038281548110610591577f4e487b7100000000000000000000000000000000000000000000000000000000600052603260045260246000fd5b906000526020600020906005020160040160009054906101000a900460ff161515146105f2576040517f08c379a00000000000000000000000000000000000000000000000000000000081526004016105e990610d74565b60405180910390fd5b60001515600260003373ffffffffffffffffffffffffffffffffffffffff1673ffffffffffffffffffffffffffffffffffffffff168152602001908152602001600020600083815260200190815260200160002060009054906101000a900460ff16151514610696576040517f08c379a000000000000000000000000000000000000000000000000000000000815260040161068d90610db4565b60405180910390fd5b600154600382815481106106d3577f4e487b7100000000000000000000000000000000000000000000000000000000600052603260045260246000fd5b90600052602060002090600502016003015410610725576040517f08c379a000000000000000000000000000000000000000000000000000000000815260040161071c90610d94565b60405180910390fd5b6001600260003373ffffffffffffffffffffffffffffffffffffffff1673ffffffffffffffffffffffffffffffffffffffff168152602001908152602001600020600083815260200190815260200160002060006101000a81548160ff021916908315150217905550600381815481106107c8577f4e487b7100000000000000000000000000000000000000000000000000000000600052603260045260246000fd5b906000526020600020906005020160030160008154809291906107ea90610f1f565b91905055506001546003828154811061082c577f4e487b7100000000000000000000000000000000000000000000000000000000600052603260045260246000fd5b906000526020600020906005020160030154106109b15760016003828154811061087f577f4e487b7100000000000000000000000000000000000000000000000000000000600052603260045260246000fd5b906000526020600020906005020160040160006101000a81548160ff0219169083151502179055506000600382815481106108e3577f4e487b7100000000000000000000000000000000000000000000000000000000600052603260045260246000fd5b906000526020600020906005020160020160009054906101000a900473ffffffffffffffffffffffffffffffffffffffff169050600060038381548110610953577f4e487b7100000000000000000000000000000000000000000000000000000000600052603260045260246000fd5b90600052602060002090600502016001015490508173ffffffffffffffffffffffffffffffffffffffff166108fc829081150290604051600060405180830381858888f193505050501580156109ad573d6000803e3d6000fd5b5050505b50565b565b60026020528160005260406000206020528060005260406000206000915091509054906101000a900460ff1681565b6000813590506109f481611038565b92915050565b600081359050610a098161104f565b92915050565b600081359050610a1e81611066565b92915050565b60008060408385031215610a3757600080fd5b6000610a45858286016109e5565b9250506020610a5685828601610a0f565b9150509250929050565b600060208284031215610a7257600080fd5b6000610a8084828501610a0f565b91505092915050565b60008060408385031215610a9c57600080fd5b6000610aaa85828601610a0f565b9250506020610abb858286016109fa565b9150509250929050565b6000610ad18383610b13565b60208301905092915050565b6000610ae98383610c74565b60a08301905092915050565b610afe81610ed7565b82525050565b610b0d81610ed7565b82525050565b610b1c81610ec5565b82525050565b610b2b81610ec5565b82525050565b6000610b3c82610e62565b610b468185610e92565b9350610b5183610e42565b8060005b83811015610b82578151610b698882610ac5565b9750610b7483610e78565b925050600181019050610b55565b5085935050505092915050565b6000610b9a82610e6d565b610ba48185610ea3565b9350610baf83610e52565b8060005b83811015610be0578151610bc78882610add565b9750610bd283610e85565b925050600181019050610bb3565b5085935050505092915050565b610bf681610ee9565b82525050565b610c0581610ee9565b82525050565b6000610c18601e83610eb4565b9150610c2382610f97565b602082019050919050565b6000610c3b602283610eb4565b9150610c4682610fc0565b604082019050919050565b6000610c5e601d83610eb4565b9150610c698261100f565b602082019050919050565b60a082016000820151610c8a6000850182610cdc565b506020820151610c9d6020850182610cdc565b506040820151610cb06040850182610af5565b506060820151610cc36060850182610cdc565b506080820151610cd66080850182610bed565b50505050565b610ce581610f15565b82525050565b610cf481610f15565b82525050565b6000602082019050610d0f6000830184610b22565b92915050565b60006020820190508181036000830152610d2f8184610b31565b905092915050565b60006020820190508181036000830152610d518184610b8f565b905092915050565b6000602082019050610d6e6000830184610bfc565b92915050565b60006020820190508181036000830152610d8d81610c0b565b9050919050565b60006020820190508181036000830152610dad81610c2e565b9050919050565b60006020820190508181036000830152610dcd81610c51565b9050919050565b6000602082019050610de96000830184610ceb565b92915050565b600060a082019050610e046000830188610ceb565b610e116020830187610ceb565b610e1e6040830186610b04565b610e2b6060830185610ceb565b610e386080830184610bfc565b9695505050505050565b6000819050602082019050919050565b6000819050602082019050919050565b600081519050919050565b600081519050919050565b6000602082019050919050565b6000602082019050919050565b600082825260208201905092915050565b600082825260208201905092915050565b600082825260208201905092915050565b6000610ed082610ef5565b9050919050565b6000610ee282610ef5565b9050919050565b60008115159050919050565b600073ffffffffffffffffffffffffffffffffffffffff82169050919050565b6000819050919050565b6000610f2a82610f15565b91507fffffffffffffffffffffffffffffffffffffffffffffffffffffffffffffffff821415610f5d57610f5c610f68565b5b600182019050919050565b7f4e487b7100000000000000000000000000000000000000000000000000000000600052601160045260246000fd5b7f7472616e736665722068617320616c7265616479206265656e2073656e740000600082015250565b7f7472616e736665722068617320616c7265616479206265656e20617070726f7660008201527f6564000000000000000000000000000000000000000000000000000000000000602082015250565b7f63616e6e6f7420617070726f7665207472616e73666572207477696365000000600082015250565b61104181610ec5565b811461104c57600080fd5b50565b61105881610ed7565b811461106357600080fd5b50565b61106f81610f15565b811461107a57600080fd5b5056fea2646970667358221220d8ee559b78b5d3d11c83ac496d88464c3feac4bebdb64645f2ee77eadff5801964736f6c63430008040033",
  "linkReferences": {},
  "deployedLinkReferences": {}
}